:100000000C942A000C9447000C9447000C94470071
:100010000C9447000C9447000C9447000C94470044
:100020000C9447000C9447000C9447000C94470034
:100030000C9447000C94D2010C9447000C94980146
:100040000C9447000C9447000C9447000C94470014
:100050000C94470011241FBECFE5D8E0DEBFCDBF12
:1000600010E0A0E6B0E0E6EAF4E002C005900D92F0
:10007000AE36B107D9F720E0AEE6B0E001C01D9280
:10008000A537B207E1F70E94FF000C9451020C94CF
:10009000000088B3877F88BB87EA91E60197F1F774
:1000A00000C0000088B3886088BB08951ABA88B37E
:1000B0008D7F88BB88B3846088BB0E9449008FEF26
:1000C0008ABB88B38B7F88BB0895CF93C82F0E94CB
:1000D000560088B3897F88BBCBBB0E944900CF9173
:1000E000089581E00E94650008952FE78AE196E077
:1000F000215080409040E1F700C0000087B38E603F
:1001000087BB88B3817F88BB8FEF8ABB2FED83E9E4
:1001100094E0215080409040E1F700C0000088E367
:100120000E94650088E00E9465000E94710086E0E0
:100130000E94650080E80E9465008FE00E946500D3
:100140000895811107C0613168F480E8860F0E942C
:1001500065000895813031F4613120F480EC860F20
:100160000E9465000895CF93C82F0E94560088B35F
:100170008B7F88BB88B3826088BBCBBB0E94490061
:1001800080916E008F5F80936E00803129F460E073
:1001900081E00E94A1000AC0803240F00E947100FC
:1001A00060E080E00E94A10010926E00CF9108955F
:1001B000CF93DF93EC0103C021960E94B3008881A6
:1001C0008111FACFDF91CF910895CF93DF9300D0C3
:1001D00000D01F92CDB7DEB74AE050E0BE016F5F9E
:1001E0007F4F0E941102CE0101960E94D8000F900D
:1001F0000F900F900F900F90DF91CF910895CF93B4
:10020000DF93CDB7DEB7C456D1090FB6F894DEBF81
:100210000FBECDBF0E94750078940E944C0160E033
:1002200080E00E94A10083E690E00E94760189E6CA
:1002300090E00E94760160E081E00E94A100CE0182
:1002400001960E948C01CE0101960E94D80060E0C8
:1002500080E00E94A10080916F00909170000E9448
:10026000E50080916F00909170000196909370006E
:1002700080936F000A9721F41092700010926F0023
:100280002FE784E89EE1215080409040E1F700C0D4
:1002900000000E947100CFCF8BB18D7F8BB983E3BB
:1002A00089B980B58F7E80BD80B58F7D80BD80B5DA
:1002B0008F7D80BD80B5826080BD80B5846080BD4B
:1002C0008AB18B7F8AB98AB188608AB98AB1806124
:1002D0008AB908958AB180648AB908958AB180681C
:1002E0008AB908958CB908958CB10895CF93DF939E
:1002F0009C0190916200913061F4E9010E946A01D1
:1003000088810E947201D0937400C0937300109290
:100310006200DF91CF910895CF93DF93EC010E94AB
:100320006E01D0937200C0937100DF91CF91089558
:100330001F920F920FB60F9211242F933F934F935A
:100340005F936F937F938F939F93AF93BF93EF933D
:10035000FF9380916100E0917300F0917400E80FC9
:10036000F11D8081882341F00E947201809161001B
:100370008F5F8093610005C081E08093610080936E
:100380006200FF91EF91BF91AF919F918F917F910B
:100390006F915F914F913F912F910F900FBE0F90F2
:1003A0001F9018951F920F920FB60F9211242F9342
:1003B0003F934F935F936F937F938F939F93AF93ED
:1003C000BF93EF93FF930E9474018D3069F0909179
:1003D00060009F5F90936000E0917100F091720067
:1003E000E90FF11D80830CC0E0917100F091720063
:1003F00084E6DF011D928A95E9F78FEF8093600014
:10040000FF91EF91BF91AF919F918F917F916F91EC
:100410005F914F913F912F910F900FBE0F901F90C2
:1004200018954532510520F4423010F00C941C020E
:10043000FB011082CB010895BB274A3031F4992388
:1004400022F4BDE2909581959F4F0C942802BB2722
:10045000FB015527AA27880F991FAA1FA41710F080
:10046000A41B83955051B9F7A05DAA3308F0A95D8C
:10047000A193009779F7B111B1931192CB010C942C
:100480004102DC01FC01672F71917723E1F732977C
:1004900004C07C916D9370836291AE17BF07C8F35F
:0604A0000895F894FFCF5F
:0E04A600FF010161686D6564007265646100AC
:00000001FF
