:100000000C942A000C9434000C9434000C943400AA
:100010000C9434000C9434000C9434000C94340090
:100020000C9434000C9434000C9434000C94340080
:100030000C9434000C9434000C9434000C94340070
:100040000C9434000C9434000C9434000C94340060
:100050000C94340011241FBECFE5D8E0DEBFCDBF25
:100060000E9443000C946F000C94000098B39F7E94
:1000700098BB8FB9779BFECF6FB9779BFECF88B3C4
:10008000806188BB089587B3806B87BB8DB1816524
:100090008DB96FEF89E00E94360067E08BE00E9427
:1000A00036006FE08AE00E94360061E08CE00E943A
:1000B000360060E0C1E010C0D1E0D60F8C2F0E9466
:1000C00036002FE38DE093E0215080409040E1F72F
:1000D00000C00000CF5F6D2FC93070F3EBCFF894F4
:0200E000FFCF50
:00000001FF
