:100000000C942A000C94AD000C94D3000C94F900CD
:100010000C942A010C942A010C942A010C942A01B4
:100020000C942A010C942A010C942A010C942A01A4
:100030000C942A010C942A010C942A010C942A0194
:100040000C942A010C942A010C942A010C942A0184
:100050000C942A0111241FBECFE5D8E0DEBFCDBF2E
:0C0060000E9436000C941F01F894FFCFA2
:10006C00789481B392B3A3B3B4B3806281BB92BBD7
:10007C00A3BBB4BB81B392B3A3B3B4B3806481BB51
:10008C0092BBA3BBB4BB81B392B3A3B3B4B380682C
:10009C0081BB92BBA3BBB4BB85B796B7A7B7B8B7A8
:1000AC00816085BF96BFA7BFB8BF85B796B7A7B706
:1000BC00B8B7846085BF96BFA7BFB8BF85B796B7E2
:1000CC00A7B7B8B7886085BF96BFA7BFB8BF84B7BE
:1000DC0095B7A6B7B7B78F7B84BF95BFA6BFB7BF81
:1000EC008BB79CB7ADB7BEB780628BBF9CBFADBFA3
:1000FC00BEBF8BB79CB7ADB7BEB780648BBF9CBF80
:10010C00ADBFBEBF8BB79CB7ADB7BEB780688BBF5A
:10011C009CBFADBFBEBF82B393B3A4B3B5B38F7D49
:10012C0082BB93BBA4BBB5BB82B393B3A4B3B5B32F
:10013C008F7B82BB93BBA4BBB5BB82B393B3A4B37D
:0E014C00B5B38F7782BB93BBA4BBB5BBE4CF2A
:10015A001F920F920FB60F9211242F938F939F9392
:10016A00AF93BF9382B393B3A4B3B5B3806282BB98
:10017A0093BBA4BBB5BB2FEF80E792E02150804030
:10018A009040E1F700C00000BF91AF919F918F911D
:0C019A002F910F900FBE0F901F90189532
:1001A6001F920F920FB60F9211242F938F939F9346
:1001B600AF93BF9382B393B3A4B3B5B3806482BB4A
:1001C60093BBA4BBB5BB2FEF80E792E021508040E4
:1001D6009040E1F700C00000BF91AF919F918F91D1
:0C01E6002F910F900FBE0F901F901895E6
:1001F2001F920F920FB60F9211242F938F939F93FA
:10020200AF93BF9382B393B3A4B3B5B3806882BBF9
:1002120093BBA4BBB5BB2FEF80E792E02150804097
:100222009040E1F700C00000BF91AF919F918F9184
:0C0232002F910F900FBE0F901F90189599
:10023E00EC010E942F010E942E01CE010E9430017E
:06024E00CE010E942C010C
:040254000C94000006
:040258000E943400CC
:02025C00089503
:02025E00089501
:020260000895FF
:00000001FF
